:020000040800F2
:1000000038DD0020B9020008333400082B34000822
:100010002F340008771E0008C537000800000000D4
:100020000000000000000000000000005D34000837
:100030007B1E000800000000CF020008D10200086B
:10004000D3020008D3020008D3020008D30200083C
:10005000D3020008D3020008D3020008D30200082C
:10006000D3020008D3020008D3020008D30200081C
:10007000D3020008D3020008D3020008D30200080C
:10008000D3020008D3020008D3020008D3020008FC
:10009000D3020008D3020008D3020008D3020008EC
:1000A000D3020008D3020008D3020008D3020008DC
:1000B000D3020008D302000861340008D30200080C
:1000C000D3020008D3020008D3020008D3020008BC
:1000D000D3020008A1370008D3020008D3020008A9
:1000E000D3020008D3020008D3020008D30200089C
:1000F000D3020008D3020008D3020008D30200088C
:10010000D3020008D3020008D3020008D30200087B
:10011000D3020008D3020008A5340008D302000867
:10012000D3020008D3020008D3020008D30200085B
:1001300000F002F800F0B0F80AA090E8000C824449
:100140008344AAF10107DA4501D100F0A5F8AFF226
:10015000090EBAE80F0013F0010F18BFFB1A43F0A5
:1001600001031847B44D0400D44D04000A444FF075
:10017000000C10F8013B13F0070408BF10F8014B06
:100180001D1108BF10F8015B641E05D010F8016B4B
:10019000641E01F8016BF9D113F0080F1EBF10F8AF
:1001A000014BAD1C0C1B09D16D1E58BF01F801CBD2
:1001B000FAD505E014F8016B01F8016B6D1EF9D555
:1001C0009142D6D37047000000230024002500266A
:1001D000103A28BF78C1FBD8520728BF30C148BFAA
:1001E0000B6070476E2900F05284702900F0EF8197
:1001F00066293CF04C8065293CF0498067293CF039
:10020000468061293CF0458003681B0A28BF41F005
:100210008001692900F06081642900F05D81752901
:1002200000F05A816F2900F05887782900F0BB81CF
:10023000E92900F0F386E42900F0F086F52900F0C2
:10024000ED86EF2900F05587F82900F0BA810368A0
:10025000DB0928BF41F08001632900F06286732921
:1002600000F06786E32901F06181F32901F06681DE
:10027000002070471FB500F047FF04000020002158
:100280003BF0A6FA401C6060002000213BF08AFA97
:10029000E0601FBD10B510BD01F0EEF91146FFF78B
:1002A000E9FF33F057FB01F015FA03B4FFF7F2FF53
:1002B00003BC05F0D3FD000009488047094800470A
:1002C000FEE7FEE7FEE7FEE7FEE7FEE7FEE7FEE706
:1002D000FEE7FEE704480549054A064B7047000063
:1002E0005F3400083101000838CB002038DD0020E1
:1002F00038CD002038CD0020704753EA020C00F0C2
:1003000069802DE9F04B4FF00006002B1FBFB3FAB8
:1003100083F503FA05F424FA05F65E4012BF16438E
:10032000B2FA82F502FA05F4C5F120051EBF22FAE1
:1003300005FC44EA0C04203556EA044C4FEA144408
:1003400018BF641C4FF000084FF00009904271EB99
:10035000030C39D3002919BFB1FA81F701FA07F666
:10036000B0FA80F700FA07F6C7F120071EBF20FA9F
:1003700007FC46EA0C062037B6FBF4FCA7EB0507A2
:10038000103F07F01F0BCBF120060CFA0BFB2CFAE9
:1003900006F644BFB3460026202FA4BF5E464FF0AA
:1003A000000B5BEA060C08BF4FF0010B19EB0B09C1
:1003B000ABFB027C48EB0608C01B06FB02CC0BFB28
:1003C00003CC71EB0C01C1E70B460246414648469F
:1003D000BDE8F08B13B54FF000004FF00001AFF314
:1003E0000080BDE81C4070470A46014900F0A6BDE8
:1003F000080000200FB4044910B503AA029800F0C9
:100400009DFD10BC5DF814FB080000200FB41CB566
:10041000084B06AA7B4469460090059800F05FFDF2
:1004200004460020694600F06DFD20461CBC5DF8C6
:1004300014FB0000ED0A000070B5044685690068F1
:10044000C10601D5302600E02026C00707D070BDC8
:10045000D4E9012130469047206A401C20626D1E7D
:10046000F6D570BD70B5044685690078C00707D120
:1004700070BDD4E9012120209047206A401C2062F1
:100480006D1EF6D570BD70B50C460546012A05D027
:100490002878800600D5EA69002302E0012305E000
:1004A0005B1C934202D2E05C0028F9D1A869E618EF
:1004B000C01AA861286A184428622846FFF7BCFFC2
:1004C00004E0D5E9012114F8010B9047B442F8D3B8
:1004D0002846FFF7C7FF70BD2DE9F041064600240E
:1004E00010687529314616A510D000F065FA00286D
:1004F00002DA404213A507E031688A0701D512A548
:1005000002E0490704D511A5012401E000F05DFADD
:1005100000210A2206F1240709E0B0FBF2FCB0FB3F
:10052000F2F302FB1C00303078541846491C0028B6
:10053000F3D123462A463046BDE8F04100F04EBADA
:10054000000000002D0000002B0000002000000033
:10055000F0B40D460188090502D5214C7C4402E027
:100560001F4C7C440E34002100F1240608E002F008
:100570000F071209E75D42EA03721B097754491C11
:1005800052EA0307F3D102780023120704D5702D35
:1005900006D009B1022311342246F0BC00F01EBA85
:1005A00001231034F8E770B504460D462146106863
:1005B00000F00BFA024629462046BDE870400023B1
:1005C000C6E7D21D22F00703D3E90023C0E7036882
:1005D000126843F0200303600823C3610023B7E7D8
:1005E000893D04002DE9F05F894604464FF0000A7A
:1005F000DFF874B1FB44C0F820A02046E1688847CA
:10060000002874D0252806D0D4E901219047206A1B
:10061000401C2062F1E700265F462046E1688847DB
:100620002028054607DB312D05D2781910F8200C5B
:1006300008B10643F1E7B00701D526F00406C4F877
:100640001CA00027C4F818A02A2D09D0284603F0C2
:1006500009F938B304EB8708303DC8F8185019E0A1
:1006600059F8041B204604EB87029161E168884732
:10067000012F054618D1E069002820DA26F020066F
:100680001DE0D8F8180000EB800005EB4000303882
:10069000C8F818002046E1688847054603F0E2F8EC
:1006A0000028EED1012F0AD02E2D08D12046E16876
:1006B00088477F1C0546022F46F02006C4DBA06950
:1006C000002803DA404246F00106A061F00701D09D
:1006D00026F010066C2D0BD0682D09D04C2D39D08A
:1006E0006A2D35D0742D35D07A2D33D016E038E010
:1006F000E1682F4620468847B842054609D16C2F4D
:1007000026D04FF48060E1680643204688470546BE
:1007100004E06C2F1AD04FF4807006430DB3A5F19E
:100720004100192802D8203546F400664A46294679
:10073000204626604E46FFF755FD80B101280BD0BC
:10074000F61D26F0070000F1080956E74020E4E70F
:100750008020D8E70020D6E706F104094DE72846B7
:1007600052E7206ABDE8F09F193D040040EA01030A
:10077000024630B59B0710D14FF0013400E008C2AB
:1007800008C91D1B9D4315EAC41FF8D013F0FF01D3
:1007900002F8011B0DD01B0AF8E711F8013B002BF2
:1007A00002F8013B05D011F8013B002B02F8013B98
:1007B000F3D130BD10B5431C02E010F8011B71B13C
:1007C0008107FAD14FF0013202C88C1A8C4314EA27
:1007D000C211F9D0C01A0A0603D0C01E10BDC01A3B
:1007E00010BD0A0401D0801E10BD0902FCD0401EBD
:1007F00010BD032A40F2308010F0030C00F0158089
:1008000011F8013BBCF1020F624498BF11F801CB13
:1008100000F8013B38BF11F8013BA2F1040298BF78
:1008200000F801CB38BF00F8013B11F0030300F0E2
:100830002580083AC0F0088051F8043B083A51F886
:1008400004CBA0E80810F5E7121D5CBF51F8043B8B
:1008500040F8043BAFF30080D20724BF11F8013BFE
:1008600011F801CB48BF11F8012B24BF00F8013B60
:1008700000F801CB48BF00F8012B704710B5203AB3
:10088000C0F00B80B1E81850203AA0E81850B1E849
:100890001850A0E81850BFF4F5AF5FEA027C24BFFF
:1008A000B1E81850A0E8185044BF18C918C0BDE8F6
:1008B00010405FEA827C24BF51F8043B40F8043BBF
:1008C00008BF7047D20728BF31F8023B48BF11F874
:1008D000012B28BF20F8023B48BF00F8012B7047CE
:1008E0004FF0000200B5134694469646203922BFC9
:1008F000A0E80C50A0E80C50B1F12001BFF4F7AF14
:10090000090728BFA0E80C5048BF0CC05DF804EBF5
:10091000890028BF40F8042B08BF704748BF20F863
:10092000022B11F0804F18BF00F8012B7047000018
:100930004FF0013C50F8042B51F8043B9A4221D16E
:10094000A2EB0C03934313EACC1317D150F8042BFA
:1009500051F8043B9A4215D1A2EB0C03934313EADE
:10096000CC130BD150F8042B51F8043B9A4209D117
:10097000A2EB0C03934313EACC13DBD04FF000003F
:10098000704700BFD01A01BAB1FA81F101F0180125
:1009900022FA01F0CB40C1F12001DBB2C0B2C01A93
:1009A0002CFA01F3D11A914311EAC311E6D1704731
:1009B000704770477047704709684A0501D540B2D3
:1009C0007047C905FCD500B2704709684A0501D5D2
:1009D000C0B27047C905FCD580B270472DE9F04719
:1009E0000D4699469246044600F12408016888069F
:1009F00004D5E06921F01001216000E00120A84247
:100A000001DD471B00E00027A1697A1902EB09000C
:100A1000081AA0612078C00602D42046FFF70CFD1A
:100A2000002608E0D4E901211AF806009047206A60
:100A3000401C761C20624E45F4DB2078C0060AD5A7
:100A40002046FFF7F9FC06E0D4E901213020904769
:100A5000206A401C2062381EA7F10107F4DC07E081
:100A6000D4E9012118F805009047206A401C206253
:100A7000281EA5F10105F3DC2046FFF7F3FC2078E2
:100A8000000602D50220BDE8F0870120FBE71168CF
:100A90000268006A530501D508700AE0D30501D544
:100AA000088006E0130603D5C217C1E9000200E082
:100AB00008600120704770472DE9FF4F0C461E4625
:100AC0004FF0FF378BB0D2E90001DDF860800A906B
:100AD0008A46C1F30A5505B93D46002108464FF044
:100AE0000000BAF1000F00F4400005DA00EB8000CE
:100AF0004FF4400101EA50004FEA9059B9F1010F5B
:100B000000DDB9460A9850EA4A000ED044F610506B
:100B1000A5F2FF3545432F14B8F1000F1ED07542E2
:100B2000291E1EDDC9F100021CE0B8F1010F4FF0D3
:100B3000000001D0302103E0F24305E02154401CC5
:100B4000B042FBDB30460022002121540B99C1F852
:100B50000880C1E900200FB0BDE8F08FBD1B6D1CFF
:100B6000DEE74A4600DA694206A800F0EBFC06AB75
:100B700093E8070003AB83E8070050460A9900F0AA
:100B8000B2FD8DE80700A0F500501F3800900398D3
:100B9000002D0ADD42F21F014A460844002303A942
:100BA0000390684601F01BF809E0A0F500504A46A2
:100BB0001F38002303A90390684601F025F88DE84B
:100BC00007000004000C03D04FF0FF30410800E0A4
:100BD0001046B8F1000F03D00022009215461EE027
:100BE000751E05D400F094FA303262556D1EF9D5A9
:100BF000B3460122084302D000227F1C04E0207883
:100C0000302801D100227F1E002A099784D01DE0E0
:100C1000112D07DA00F07CFA303262556D1C50EA73
:100C20000102F5D1084302D00098C8B10EE00021BE
:100C3000681E05E0235C625C63542254401E491C1C
:100C40008142F7DBAB46A81B401E0990002004F848
:100C50000B000B98099AC0F80880C0E9002B7AE7CE
:100C600011264FF0000857E72DE9F04F884604465B
:100C7000D21D22F0070191B0D1E90001CDE90A01AE
:100C800002F0A2FD02460B98C00F01D02D2007E014
:100C90002068810701D52B2002E0202101EAC00055
:100CA000032A099001D0072A05DB03464146204666
:100CB00000F0F2FB0BE12078800601D5E06900E04E
:100CC0000620B8F1650F814606D0B8F1660F18D03E
:100CD000B8F1670F70D131E00020B9F1110F009029
:100CE00001DB112301E009F101030AAA01A90CA803
:100CF000FFF7E2FEDDE90C70002609F101058346ED
:100D000047E001204B4600904FF000470AAA01A996
:100D10000CA8FFF7D1FEDDE90DB00C995D46002669
:100D200010B909F101000D18B9EB050003D4C0F1A9
:100D3000FF3609F10105A5EB09002BE0B9F1010F20
:100D400001DA4FF001090020B9F1110F0090484677
:100D500001DD112300E003460AAA01A90CA8FFF750
:100D6000ABFEDDE90C704D46002683462078000777
:100D70000AD4AB4500DA5D4601A8012D04DD411916
:100D800011F8011C302907D04F4502DA17F1040F82
:100D900004DA012082460FE06D1EEEE7002F02DC30
:100DA000ED1B3E4403E0781CA84200DD7D1CB81B0F
:100DB00000F1010A4FF000472078000703D4AA454C
:100DC00001DB4FF0FF3A0021B7F1004F0DF143086E
:100DD0008DF8431024D002202B23002F01DA7F420C
:100DE0002D230A21021EA0F1010000DC5FB197FB58
:100DF000F1FC97FBF1F201FB1C7C17460CF1300C67
:100E000008F801CDEEE7A8F101000370218809057B
:100E100001D5452100E06521A0F1010800F8011C81
:100E200009980FA9A1EB0807FF1D00B10120411986
:100E300001EBEA70A1693844081A401EA0612078CD
:100E4000C00602D42046FFF7F7FA099828B1D4E982
:100E500001219047206A401C20622078C00622D5DC
:100E60002046FFF7E9FA1EE0002E04DBB34502DD61
:100E700001A8805D00E03020D4E901219047206A7C
:100E8000401C2062761CAAF101005FEA000A0AD128
:100E900000F03AF9C0680168405CD4E9012190474C
:100EA000206A401C2062281EA5F10105DCDC07E059
:100EB000D4E9012118F8010B9047206A401C2062F8
:100EC000381EA7F10107F3DC2046FFF7CBFA032019
:100ED00011B041E601694A1C02610878704700B50B
:100EE0008FB0CDE901310021059105497944CDE963
:100EF000031011466846FFF775FB0FB000BD0000F8
:100F0000E5FFFFFF0A6802F8010B0A60704710B5A1
:100F1000436913B1AFF3008001E0FFF7B4FA012099
:100F200010BD127800F124010A7000224A700122DB
:100F3000EDE711684FF0FF32E9E70000074B70B5AD
:100F40000D467B44FFF7CBFF0446284600F06CFBC0
:100F500010B14FF0FF3070BD204670BD6723010017
:100F60002DE9FF5F15468A460446DFF8AC80F84459
:100F70000027D8E900103E46CDE9001010E03AF80D
:100F800016106A4602A800F053FB411C07D02178D6
:100F9000890603D5E269391891420DD80744761CB9
:100FA0002078800602D5E069B84205DDAE42E6DB76
:100FB0003AF816000028E2D1A069C01BA0612046C3
:100FC000FFF73AFAD8E90010CDE90010002017E049
:100FD0003AF818106A4602A800F02AFBB0F1FF3F69
:100FE00081460BD000250DF1080B05E0D4E9012165
:100FF0001BF8050090476D1C4D45F7D308F1010023
:10100000B0428046E4DB206A384420622046FFF785
:1010100029FABDE8FF9F0000B23304002DE9F0413A
:101020008046D21D22F007020025D2E90002F529F0
:1010300015A614D0011E72F1000106DA0023D0EBD0
:10104000030063EB020211A608E0D8F800108B073A
:1010500001D50FA602E0490701D50EA601251146CC
:10106000002408F1240704E000F052F830323A5529
:10107000641C50EA0102F7D12B4632462146404615
:10108000BDE8F041FFF7AABC000000002D00000001
:101090002B0000002000000030B4002100F12404E7
:1010A00008E002F00705D208303542EA4372DB0857
:1010B0006554491C52EA0305F3D10468002310A2C9
:1010C000250707D5A40600D421B1C46901230DA2C8
:1010D000641EC46130BCFFF781BC10B504462146D4
:1010E0001068FFF772FC02462046BDE8104000235E
:1010F000D2E7D21D22F00701D1E90023CCE700009E
:10110000000000003000000000487047F8CA0020CE
:1011100030B5B0F10A024FEA900E71F100034EEAC9
:10112000817EB0EB0E0061EB91014FEA101E4EEA9A
:10113000017E10EB0E0041EB11114FEA102E4EEA2A
:10114000016E10EB0E0041EB11214FEA104E4EEAFA
:10115000014E10EB0E0041EB1141401841F100012E
:101160004FEAD00040EA41704FEAD10110EB800510
:101170004FEA810444EA907444EB01046D1944EB96
:101180000404521BA3414FF0000348BF0A3200D5AC
:1011900030BD401C41F1000130BD00002DE9F04F91
:1011A00004460D46D21D22F0070089B0D0E9009711
:1011B0004846394602F008FB0246F80F01D02D23BD
:1011C00007E02068810701D52B2302E0202101EAF6
:1011D000C0038DF820300BB1012000E00020032A6D
:1011E000824601D0072A04DB2946204600F054F944
:1011F0003FE12078800601D40D2500E0E569C7F3C2
:101200000A560D2D49DA00214FEA175B08464FF0C8
:101210000000002F00F4400007DA00EB80004FF4DC
:10122000400100EBD07001EA60008115012901DD69
:101230004FF0FF3100224FEA850CBCF1180F06D3A6
:101240001346ACF118004FF08052C24003E04FF457
:10125000801323FA0CF30CF10C0CBCF1200F04D317
:10126000ACF1200C09FA0CF001E007FA0CF00029AF
:101270004FF0004801DD18B90FE00ED140450CD306
:1012800019EB02095F4121B9404502D19F4329EA88
:101290000209BBEB175F00D0761C2088000502D541
:1012A0007B48784402E07A487844193808AA302309
:1012B00002F80A30037C0AF10101002E0AF1020A49
:1012C00053546A4602DC4FF0300101E04FF0310127
:1012D0004FF001088DF8001002D0A6F2FF3603E0AF
:1012E00059EA470100D06B4E002D02DC2178090736
:1012F00004D54FF002082E218DF80110C4460021BC
:101300000BE0C7F303433F01C35C491C6D1E02F8A9
:101310000830052908F1010801DA002DF1DC00216F
:101320000CE000EB1973491C1B786D1E082902F8AC
:1013300008304FEA091908F1010801DA002DF0DC44
:1013400021688B0602D516E0A8F10108E04505DD0D
:1013500002EB080313F8013C302BF5D0B8F1000F75
:1013600009DD02EB080313F8013C2E2B03D109071A
:1013700001D4A8F10108002D05DD3E2102F8081076
:101380006D1E08F10108407C002E02F8080008F1EB
:10139000010804DA2D20764202F8080002E02B2032
:1013A00002F808000A214FF47A70864208F1010819
:1013B0000BDB96FBF0F3303302F8083096FBF0F3CA
:1013C00008F1010800FB136601E0642E0CDB6420C9
:1013D00096FBF0F3303302F8083096FBF0F308F197
:1013E000010800FB136601E00A2E06DB96FBF1F014
:1013F000303002F8080008F1010896FBF1F001FB1B
:101400001060303002F80800A16908F1010808EB0B
:10141000050202EB0A00081AA0612078C00602D477
:101420002046FFF709F8216A08AE01EB0A002062A6
:1014300004E0D4E9012116F8010B9047BAF1010A42
:10144000F7D22078C00602D52046FEF7F5FF6E469B
:1014500009E016F8010B3E280FD0D4E9012190478E
:10146000206A401C2062B8F10108F2D22046FEF743
:10147000F9FF09B00320BDE8F08F206A28442062FC
:1014800003E0D4E90121302090476D1EEBD3F8E74B
:101490009930040002FCFFFF2DE9F0411F4604468D
:1014A00003260168072A01F4006004DB08B116A5D1
:1014B00005E016A503E008B115A500E015A521F08B
:1014C00010002060A069C01EA0610FB1401EA06185
:1014D0002046FEF7B1FF4FB1D4E9012138469047CD
:1014E000206A401C2062C01C206206E0206AFAE7E5
:1014F000D4E9012115F8010B9047761EF8D2204659
:10150000FEF7B0FFBDE8F0814E414E006E616E0007
:10151000494E4600696E660010B5436913B1AFF3DA
:10152000008001E0FFF71CFD012010BD128800F1D2
:10153000240182840022C2840122EDE711684FF069
:10154000FF32E9E72DE9F047814616468AB0354873
:1015500078440DC88DE80D0032487844801C03ACF7
:101560000DC884E80D0041F69B300844372190FBFC
:10157000F1F290FBF1F5A5F1800501FB12041B3C93
:1015800002D56442012000E00020DFF898A08046E8
:101590000027FA44AAF1BE0A0EE0E0070AD032465C
:1015A000684607EB470101230AEB810100F02CFBA1
:1015B0008DE8070064107F1C002CEED1194F7F448A
:1015C000AE3F19E0E80715D007EB04100DF1180A3B
:1015D00090E80E008AE80E00C068F04201D1981928
:1015E00008903246012306A903A800F00DFB03ABC7
:1015F00083E807006D10641C002DE3D14FF0010358
:1016000032466946B8F1000F03A802D000F0E7FAAD
:1016100001E000F0F9FAC9E90001C9F808200AB0B0
:10162000BDE8F0877C2E0400007B00F0800070474E
:1016300070B516460C46054600F044F8036893F86A
:101640000101012806D0FF2C0FD8185D68B10120D8
:101650002C7070BDD3F807013246214603F2071300
:1016600003442846BDE8704018474FF0FF3070BD76
:1016700000487047D8CA00207546FFF7F9FFAE460C
:1016800005006946534620F00700854618B020B58E
:10169000FEF720FEBDE820404FF000064FF00007A7
:1016A0004FF000084FF0000B21F00701AC46ACE80A
:1016B000C009ACE8C009ACE8C009ACE8C0098D4677
:1016C0007047000010B5FFF71FFD001D10BD00BFE3
:1016D00001A1030010B50446AFF300802046BDE829
:1016E0001040FEF7E2BD5FEA400C08BF91F0000F2A
:1016F0004FEA8C234FEAC12243EA51514FEA1C5072
:1017000018BF00F5F0404FEA300018BF41F000412B
:101710005FEA6C5C00F02980BCF1FF3F08BF40F03D
:1017200080407047130C06BF12044FF0100C4FF0AE
:10173000000C130E04BF12020CF1080C130F04BFAF
:1017400012010CF1040C930F04BF92000CF1020C77
:10175000D30F04BF52000CF1010C11464FF00002F0
:10176000A0F11F00A0EB0C00704711F0004F08BF64
:10177000704731F000413FF4D5AF0B0C06BF0904B0
:101780004FF0100C4FF0000C0B0E04BF09020CF1CF
:10179000080C0B0F04BF09010CF1040C8B0F04BFE4
:1017A00089000CF1020CCB0F04BF49000CF1010CB5
:1017B000CCF12003A0EB0C0022FA03F302FA0CF2A6
:1017C00041EA030100F10100704720F07F4C80EAFC
:1017D000030023F07F47ACEB070303F57C5300F0D5
:1017E000004003F1FF032DE980494FEA154B09B48E
:1017F0004FEA144325EA0B4E24EA03480FF204266D
:1018000006EB132749083E785FEA320203FB0667BE
:10181000C7F5000707FB06F64FEA54374FEAD646EE
:1018200006F1020607FB066CCCF1005C4FEA1C4790
:101830002CEA074C07FB06F40CFB06F504EB1546F7
:101840004FEA961634BF00204FF000404FEAD137E0
:1018500006FB07FC4FEA1C4C0CFB0BF7D21B03FBEF
:101860000CF761EB07010CFB0EF7B0EB074072EBD6
:1018700017420CFB08F734BFA2EB0742B2EB07425A
:1018800061EB17414FEA0C444FEA910706FB07FC56
:101890004FEA1C4C0CFB0BF7B0EBC74072EB573216
:1018A00003FB0CF734BFA2EBC742B2EBC74261EBBC
:1018B00057310CFB0EF7B0EBC70072EB57720CFB05
:1018C00008F734BFA2EBC702B2EBC70261EB577156
:1018D000039F4FEA816141EA921104EBCC044FEA85
:1018E000D1374FEA826206FB07FC42EA90124FEAC8
:1018F00080604FEA1C4C0CFB0BF7D21B03FB0CF770
:1019000061EB07010CFB0EF7B0EB074072EB1742DF
:101910000CFB08F734BFA2EB0742B2EB074261EBC6
:1019200017414FEA8C554FEA910704EB9C2406FBC4
:1019300007FC4FEA1C4C0CFB0BF7B0EBC74072EBFB
:10194000573203FB0CF734BFA2EBC742B2EBC742DE
:1019500061EB57310CFB0EF7B0EBC70072EB57721F
:101960000CFB08F734BFA2EBC702B2EBC70261EB76
:10197000577115EB4C254FEA816141EA92114FEA0C
:1019800082624FEAD13742EA901206FB07FC44F12B
:1019900000044FEA80604FEA1C4C0CFB0BF7D21B93
:1019A00003FB0CF761EB07010CFB0EF7B0EB0740F4
:1019B00072EB17420CFB08F734BFA2EB0742B2EB05
:1019C000074261EB174115EB1C154FEA813141EAE3
:1019D00092414FEA823242EA90424FEA80304FEA27
:1019E0000C7644F1000448EA03434EEA0B484FF0FA
:1019F000000EB2EB080C71EB030724BF62463946B8
:101A00004EEB0E0E4FF0000B0018524149414BEBCC
:101A10000B0BB2EB080C71EB03077BF1000B24BF3F
:101A2000624639464EEB0E0E4FF0000B0018524145
:101A300049414BEB0B0BB2EB080C71EB03077BF14D
:101A4000000B24BF624639464EEB0E0E51EA0207E8
:101A500018BF46F0010616EB0E7655F1000254F160
:101A6000000103D5BDE88901BDE80088BDE8890112
:101A7000BDE80048B619524141EB0101A3F1010351
:101A8000704780807F7E7D7C7B7A797877767675EB
:101A90007473727171706F6E6E6D6C6C6B6A6A6963
:101AA0006868676666656464636362616160605FFD
:101AB0005F5E5E5D5D5C5C5B5B5A5A595958585776
:101AC00057565655555554545353525252515150DE
:101AD00050504F4F4F4E4E4D4D4D4C4C4C4B4B4B31
:101AE0004A4A4A4949494848484747474746464677
:101AF00045454544444444434343434242424241B2
:101B00004141002B9C4630D477002BD01CB54FEAC6
:101B1000370703B44FF010004FF01001BAF1000F77
:101B200006D0BCF1000FDCBF40F0080040F0080117
:101B30004FF000000FBCBDE810400BF1010BBBF1F2
:101B4000010F08BF5FEA170722BF12F1010211F16E
:101B500001014FF0004143F1000300F0004043EA6F
:101B600000007047F9D35708D0E746EA064613F15C
:101B7000400F4FEA16461FDD13F1200FDFBF16435B
:101B80000A46002120335B42BED0C3F1200746EA5B
:101B9000064602FA07F74FEA164646EA0706C3F179
:101BA000200722FA03F201FA07F721FA03F14FF0B6
:101BB000000342EA0702A7E746EA020646EA0646AB
:101BC0004FEA164646EA0106BCBF46EA0646360C10
:101BD0004FF000034FF000024FF0000194E72DE9B1
:101BE000804C9A46934670B491E8380007C831EAB1
:101BF000400C48BF34EA430C03D5FFF7E6FDFFF77E
:101C000080FFF0BCBDE8008C2DE9804C9A469346DD
:101C100070B491E8380007C810F0804F08BF13F087
:101C2000804F03D100F005F8FFF76BFFF0BCBDE873
:101C3000008C20F07F4780EA030023F07F4C07EB05
:101C40000C03A3F57C5300F00040A3F1FE0392F0D7
:101C5000000F00F0B38095F0000F00F077802DE9C1
:101C600001494FEA11404FEA144621EA004800FBBF
:101C700006FC24EA064708FB06F607FB08F800FB0B
:101C800007F718EB06484CEB164C4FEA124B18EBD3
:101C900007484FEA15464CEB174022EA0B4E0BFB68
:101CA00006FC25EA06470EFB06F607FB0EFE0BFBBD
:101CB00007F71EEB064E4CEB164C4FF000061EEBE2
:101CC000074E4CEB174B18EB0B0840F1000018EBDC
:101CD0000E0B58EB000840F100008F1A4FF0000186
:101CE0003CBFC943661B14BFB5EB040C00213CBFCD
:101CF000C943F61B4FEA17444EEA8E0E27EA044505
:101D00004FEA1C4704FB07622CEA074C05FB07F768
:101D10000CFB05F604FB0CFC16EB074642EB1742E6
:101D200016EB0C4642EB1C421BEB060658EB02027C
:101D3000414146EA9E0601D5BDE80189B6195241E6
:101D400041EB0101A3F10103BDE801894FEA14450C
:101D50004FEA114724EA054621EA074C05FB07F440
:101D600006FB07F70CFB06F105FB0CFC11EB07412A
:101D700044EB17444FEA124711EB0C4144EB1C446F
:101D800022EA074C05FB07F206FB07F70CFB06F6F9
:101D900005FB0CFC16EB074642EB174216EB0C4614
:101DA00042EB1C456A1854F1000148BF7047B61950
:101DB000524141EB0101A3F10103704795F0000F7F
:101DC00037D04FEA11424FEA144721EA024624EA8B
:101DD000074C02FB07F106FB07F70CFB06F402FBBE
:101DE0000CFC14EB074441EB17414FEA154714EB89
:101DF0000C4441EB1C4125EA074C02FB07F506FBAE
:101E000007F70CFB06F602FB0CFC16EB074645EB4E
:101E1000174516EB0C4645EB1C42121951F1000117
:101E200048BF7047B619524141EB0101A3F10103CC
:101E300070474FEA14454FEA114724EA054621EA64
:101E4000074C05FB07F106FB07F70CFB06F24FF00A
:101E5000000605FB0CFC12EB074241EB174112EBAD
:101E60000C4251EB1C4148BF7047921841EB0101F5
:101E7000A3F10103704700BFFEE7704770B5044649
:101E8000B3F5804F13D1D1E9000540EA05108D6804
:101E900040EA05208D6928438D8940EA054054F8C1
:101EA0002250064E3540284344F8220003E06FF0EC
:101EB000704044F82200002070BD00000000F0CF08
:101EC00070B50246086852F8200020F001000E6844
:101ED00042F826008868082801D1402300E000234A
:101EE000486818438E683043CE6830430E693043EB
:101EF0004E693043CE6930430E6A30434E6A3043F8
:101F00008E6A3043CE6A30430E6B40EA060488691D
:101F10000443486B0443074D45F4806545F4E025D0
:101F2000086852F82000A84320430E6842F82600B3
:101F3000002070BD7FFB080010B50346D1E9000406
:101F400040EA04108C6840EA04208C8940EA04448A
:101F5000088A401E44EA0054087D801E44EA00605E
:101F60008C692043541C53F8244004F0404420431F
:101F7000541C43F82400002010BD000070B5044636
:101F8000002594F82100022803D00420A063012535
:101F9000C1E02068006820F00E0021680860206819
:101FA000006820F00100216808605C4920688842D0
:101FB00052D95A4978392068884201D1012047E036
:101FC000564964392068884201D1102040E05349C5
:101FD00050392068884201D1801539E04F493C3999
:101FE0002068884201D1801432E04C4928392068A9
:101FF000884202D14FF480302AE0484914392068E1
:10200000884202D14FF4801022E04449206888427F
:1020100001D140041CE042492068884201D10120DE
:1020200016E03F4914312068884201D110200FE0AA
:102030003B4928312068884201D1801508E03849A1
:102040003C312068884201D1801401E04FF4803097
:102050003349091F086051E03049783920688842C7
:1020600001D1012047E02D4964392068884201D11F
:10207000102040E0294950392068884201D180155C
:1020800039E026493C392068884201D1801432E089
:10209000224928392068884202D14FF480302AE052
:1020A0001E4914392068884202D14FF4801022E082
:1020B0001A492068884201D140041CE01849206870
:1020C000884201D1012016E0154914312068884268
:1020D00001D110200FE0124928312068884201D137
:1020E000801508E00E493C312068884201D18014F7
:1020F00001E04FF48030094980394860012084F8BC
:10210000210000BF002084F8200000BF606B10B1E8
:102110002046616B8847284670BD00008000024061
:10212000080402402DE9F847024600239C467BE163
:102130004FF0010808FA03F4D1F8008008EA04001F
:10214000A0427DD1DFF8F4A2D1F80480A8EB0A09FF
:10215000D0453AD014DCB8F1030F50D009DCB8F107
:10216000000F31D0B8F1010F1CD0B8F1020F49D1E6
:1021700020E0B8F1110F18D0B8F1120F42D11EE0D3
:10218000B9F5881F25D006DCB9F5803F20D0B9F518
:10219000801F37D11AE0B9F5001F18D0B9F5041F18
:1021A00030D117E0D1F80CC02DE0D1F80C8008F147
:1021B000040C28E0D1F80C8008F1080C23E0D1F8D9
:1021C0000C8008F10C0C1EE000BF00BF00BF00BF78
:1021D00000BF00BFD1F80880B8F1000F02D14FF066
:1021E000040C0BE0D1F80880B8F1010F03D14FF0D7
:1021F000080C146102E04FF0080C546103E04FF04A
:10220000000C00E000BF00BFFF2801D8904601E0AD
:1022100002F104084646FF2802D84FEA830803E08B
:10222000A3F108084FEA88084746D6F800804FF027
:102230000F0909FA07F928EA09080CFA07F900E07A
:102240007AE048EA0908C6F80080D1F8048008F06E
:102250008058B8F1805F6FD100BFDFF8E481D8F813
:10226000188048F00108DFF8D891C9F81880C846EE
:10227000D8F8188008F00108CDF8008000BF00BF32
:102280004FEAB9384FEA930958F829504FEA837852
:102290004FEA18794FF00F0808FA09F825EA0805FF
:1022A000DFF8A081424502D14FF0000824E0DFF8BA
:1022B0009881424502D14FF001081DE0DFF88C8182
:1022C000424502D14FF0020816E0DFF88481424512
:1022D00002D14FF003080FE0DFF87881424502D1C8
:1022E0004FF0040808E0DFF87081424502D14FF05A
:1022F000050801E04FF006084FEA83794FEA1979A3
:1023000008FA09F848EA0505DFF850814FEA930911
:1023100048F82950D1F8048008F48038B8F5803F97
:102320000BD1DFF83C81D8F8008048EA0008DFF8DC
:102330003091C9F800800AE075E0DFF82481D8F810
:10234000008028EA0008DFF81891C9F80080D1F869
:10235000048008F40038B8F5003F0ED1DFF80081A2
:1023600008F10408D8F8008048EA0008DFF8F09087
:1023700009F10409C9F800800DE0DFF8E48008F1F4
:102380000408D8F8008028EA0008DFF8D49009F1A2
:102390000409C9F80080D1F8048008F48018B8F561
:1023A000801F0ED1DFF8B88008F10808D8F8008047
:1023B00048EA0008DFF8A89009F10809C9F8008088
:1023C0000DE0DFF89C8008F10808D8F8008028EAC2
:1023D0000008DFF88C9009F10809C9F80080D1F8ED
:1023E000048008F40018B8F5001F0ED1DFF87080E3
:1023F00008F10C08D8F8008048EA0008DFF860907F
:1024000009F10C09C9F800800DE0DFF8548008F1EB
:102410000C08D8F8008028EA0008DFF8449009F199
:102420000C09C9F800805B1CD1F8008028FA03F879
:10243000B8F1000F7FF47CAEBDE8F8870000111002
:102440000010024000080140000C01400010014053
:102450000014014000180140001C01400800014028
:1024600000040140024693680B400BB1012000E0DC
:102470000020704710B5C26821EA020302EA010495
:1024800043EA0443036110BD0AB1016101E00B049A
:102490000361704701480068704700001000002089
:1024A00010B50848006840F0100006490860052093
:1024B00000F080F80F2000F007F800F02BF8002063
:1024C00010BD00000020024070B504460E480078A0
:1024D0004FF47A71B1FBF0F00C490968B1FBF0F5EB
:1024E000284600F073FC08B1012070BD102C07D203
:1024F00000222146501E00F01EF80548046001E04D
:102500000120F2E70020F0E7180000200000002082
:1025100014000020704701460846002809DB00F03F
:102520001F0301229A4043099B0003F1E023C3F8F3
:10253000002100BF70472DE9F05F80460D4616462A
:10254000002701F055F9074639462A46334601F07F
:102550000700C0F1070ABAF1040F02D94FF0040ACC
:1025600001E0C0F1070AD14600F1040ABAF1070FF1
:1025700002D24FF0000A01E0A0F1030AD4464FF066
:10258000010A0AFA09FAAAF1010A0AEA020A0AFA8F
:102590000CFA4FF0010B0BFA0CFBABF1010B0BEA41
:1025A000030B4AEA0B042146404601F029F9BDE835
:1025B000F09F000000BF00F00702064B19684FF6BD
:1025C000FF031940044B0B4343EA0221014B1960FE
:1025D00000BF70470CED00E00000FA0570B504463E
:1025E0000D460CB9012070BD5A48006800F0070084
:1025F000A8420ED25748006820F0070028435549EA
:1026000008600846006800F00700A84201D00120D9
:10261000E9E7207800F0020002281DD1207800F0C0
:102620000400042805D14C48406840F4E0604A4961
:102630004860207800F00800082805D14648406826
:1026400040F46050444948604348406820F0F0003E
:10265000A168084340494860207800F0010078B341
:102660006068012806D13C48006800F4003090B949
:102670000120B8E76068022806D13748006800F0FA
:10268000007040B90120AEE73348006800F0020056
:1026900008B90120A7E73048406820F003006168CE
:1026A00008432D494860FFF7F5FE064609E0FFF7AD
:1026B000F1FE801B41F28831884202D9032092E763
:1026C00007E02548406800F00C006168B0EB810F1E
:1026D000EDD12048006800F00700A8420ED91D483F
:1026E000006820F0070028431A490860084600687F
:1026F00000F00700A84201D0012074E7207800F024
:102700000400042807D11448406820F4E060E16820
:10271000084311494860207800F00800082808D1D3
:102720000D48406820F46050216940EAC1000A4920
:10273000486000F03FF808494968C1F30311074AAF
:10274000515CC8400649086006480068FFF7BCFEB7
:10275000002048E7002002400010024096C2030813
:1027600000000020140000200148006870470000AD
:102770000000002000B5FFF7F7FF04494968C1F3E6
:102780000221034A515CC84000BD00000010024015
:10279000A6C2030800B5FFF7E7FF04494968C1F383
:1027A000C221034A515CC84000BD00000010024035
:1027B000A6C20308F0B585B00FF26C0C9CE8E010DF
:1027C00001A8A0E8E0101CA52D68009500210022BA
:1027D000002300240020194D696801F00C05F5B1B3
:1027E000042D02D0082D19D101E0154819E001ADE2
:1027F000C1F38346AC5D01F4803555B10F4D6D6872
:10280000C5F340451DF805200D4D6543B5FBF2F3BA
:1028100002E00C4D04FB05F3184602E000BF084837
:1028200000BF00BF05B0F0BD02030405060708099C
:102830000A0B0C0D0E0F10100102000000100240D8
:1028400000127A0000093D00F8B504460CB90120D9
:10285000F8BD207800F00100002878D0F8484068E2
:1028600000F00C0004280CD0F548406800F00C0083
:10287000082811D1F248406800F48030B0F5803F5C
:102880000AD1EF48006800F4003000285FD060688B
:1028900000285CD10120DBE700BF6068B0F5803F15
:1028A00006D1E748006840F48030E549086028E038
:1028B000606858B9E248006820F48030E049086058
:1028C0000846006820F4802008601AE06068B0F5CF
:1028D000A02F0BD1DA48006840F48020D849086066
:1028E0000846006840F4803008600AE0D448006878
:1028F00020F48030D24908600846006820F4802027
:10290000086000BF606888B1FFF7C4FD054606E0B7
:10291000FFF7C0FD401B642801D9032098E7C84891
:10292000006800F400300028F2D010E0FFF7B2FD9C
:10293000054606E0FFF7AEFD401B642801D90320E1
:1029400086E7BF48006800F400300028F2D1207804
:1029500000F00200022857D1B948406800F00C008E
:1029600050B1B748406800F00C00082818D1B448AE
:10297000406800F4803098B9B148006800F0020067
:1029800020B12069012801D0012061E7AC4800682E
:1029900020F0F800616940EAC100A949086033E00D
:1029A0002069E8B10120A7490860FFF773FD0546DB
:1029B00006E0FFF76FFD401B022801D9032047E71F
:1029C0009F48006800F002000028F2D09C48006890
:1029D00020F0F800616940EAC1009949086013E0FD
:1029E000002098490860FFF755FD054606E0FFF70F
:1029F00051FD401B022801D9032029E790480068B7
:102A000000F002000028F2D1207800F00800082829
:102A10002DD1A069B8B101208B490860FFF73AFDBC
:102A2000054606E0FFF736FD401B022801D90320CA
:102A30000EE78348406A00F002000028F2D001202F
:102A400000F0F8FC13E000207F490860FFF722FD4A
:102A5000054606E0FFF71EFD401B022801D90320B2
:102A6000F6E67748406A00F002000028F2D12078AC
:102A700000F00400042873D100277148C06900F0F9
:102A8000805070B900BF6E48C06940F080506C49FA
:102A9000C8610846C06900F08050009000BF00BFC8
:102AA00001276A48006800F48070B0B96748006880
:102AB00040F4807065490860FFF7ECFC054606E0CD
:102AC000FFF7E8FC401B642801D90320C0E65F48FB
:102AD000006800F480700028F2D000BFE068012890
:102AE00006D15748006A40F001005549086227E0C6
:102AF000E06858B95248006A20F001005049086265
:102B00000846006A20F00400086219E0E068052821
:102B10000BD14B48006A40F004004949086208465E
:102B2000006A40F0010008620AE04548006A20F0AF
:102B30000100434908620846006A20F00400086268
:102B400000BFE068A0B1FFF7A5FC054609E0FFF76C
:102B5000A1FC401B41F28831884202D9032077E66C
:102B600022E03748006A00F002000028EFD012E0AF
:102B7000FFF790FC054608E0FFF78CFC401B41F294
:102B80008831884201D9032062E62D48006A00F0AE
:102B900002000028F0D1012F05D12948C06920F09A
:102BA00080502749C86100BFE069C8B32448406825
:102BB00000F00C00082860D0E069022848D100200D
:102BC00020490866FFF766FC054606E0FFF762FC51
:102BD000401B022801D903203AE61948006800F09A
:102BE00000700028F2D1206AB0F5803F07D1144868
:102BF000406820F40030A168084311494860D4E9D6
:102C0000080108430E49496821F4741108430C492E
:102C1000486001200B490866FFF73CFC054607E0C9
:102C20003DE0FFF737FC401B022801D903200FE6E7
:102C30000348006800F000700028F2D02FE0000088
:102C400000100240000042428004424200700040F6
:102C5000002014490866FFF71DFC054606E0FFF753
:102C600019FC401B022801D90320F1E50E48006839
:102C700000F000700028F2D111E0E069012800D1D5
:102C8000E6E50948466806F48031206A814204D1AD
:102C900006F47011606A814201D00120D8E500205D
:102CA000D6E50000000042420010024070B5044624
:102CB0000E4615461CB1A069B0F5807F01D10120F8
:102CC00070BD94F8410028B9002084F840002046E7
:102CD00000F020F804F108012068FFF7F1F8314610
:102CE000A2682068FFF728F92946236BD4E901027E
:102CF000FFF7C4F8A168206850F8210040F00100F7
:102D0000A268216841F82200012084F841000020D7
:102D1000D6E7000010B586B0044600BF1E484069E3
:102D200040F480701C4948610846406900F4807096
:102D3000019000BF00BF00BF0846806940F020003E
:102D400088610846806900F02000019000BF00BF44
:102D500000BF0846806940F04000886108468069ED
:102D600000F04000019000BF00BF4CF203700290E1
:102D700002200390012004900320059002A9074837
:102D8000FFF7D0F94FF68070029002A90448FFF7D0
:102D9000C9F906B010BD0000001002400014014047
:102DA00000180140042808D14FF0E021096941F0E2
:102DB00004014FF0E022116107E04FF0E0210969C2
:102DC00021F004014FF0E0221161704770B5044614
:102DD0002546681EB0F1807F01D301200FE0681EF8
:102DE0004FF0E02148610F214FF0FF3000F008FD67
:102DF00000204FF0E021886107200861002070BDAD
:102E00007047704710B504460CB9012010BD94F806
:102E10003D0028B9002084F83C00204600F025F849
:102E2000022084F83D00211D206800F043FB0120B2
:102E300084F8460000BF84F83E0001213F20015580
:102E4000402001554120015500BF00BF012084F8FA
:102E5000420043200155442001554520015500BF43
:102E6000012084F83D000020D0E77047014691F82A
:102E70003D00012801D001207047022081F83D006B
:102E80000868C06840F001000B68D860164B0868FD
:102E9000984213D0154B086898420FD00868B0F1DB
:102EA000804F0BD0124B0868984207D0114B08682E
:102EB000984203D0104B086898420CD1086880688B
:102EC00000F00702062A0CD00868006840F00100F4
:102ED0000B68186005E00868006840F001000B68A6
:102EE00018600020C8E70000002C014000340140B9
:102EF0000004004000080040000C0040704710B57E
:102F0000044620680069C0F34000D8B12068C0685A
:102F1000C0F34000B0B16FF00200216808610120E9
:102F200020772068806900F0030018B12046FFF781
:102F3000E5FF05E0204600F0ADF8204600F0ABF8D4
:102F40000020207720680069C0F38000D8B1206895
:102F5000C068C0F38000B0B16FF004002168086160
:102F6000022020772068806900F4407018B1204664
:102F7000FFF7C4FF05E0204600F08CF8204600F083
:102F80008AF80020207720680069C0F3C000D8B11B
:102F90002068C068C0F3C000B0B16FF008002168BD
:102FA0000861042020772068C06900F0030018B190
:102FB0002046FFF7A3FF05E0204600F06BF820460F
:102FC00000F069F80020207720680069C0F3001045
:102FD000D8B12068C068C0F30010B0B16FF0100025
:102FE00021680861082020772068C06900F44070DB
:102FF00018B12046FFF782FF05E0204600F04AF8AE
:10300000204600F048F8002020772068006900F092
:10301000010058B12068C06800F0010030B16FF0C5
:10302000010021680861204600F036F82068006938
:10303000C0F3C01058B12068C068C0F3C01030B1F0
:103040006FF08000216808612046FFF7D9FE2068F4
:103050000069C0F3801058B12068C068C0F38010C8
:1030600030B16FF0400021680861204600F020F880
:1030700020680069C0F3401058B12068C068C0F3F0
:10308000401030B16FF02000216808612046FFF742
:10309000B8FE10BD7047704710B50446034884421F
:1030A00002D101202FF086FB10BD00005C0500203E
:1030B000704770472DE9F04704462068056820688E
:1030C000C668206847694FF00008C14605F00F0840
:1030D000B8F1000F0AD105F0200038B106F0200049
:1030E00020B1204600F05EFABDE8F087B8F1000F8D
:1030F00071D007F0010018B906F4907000286AD06A
:1031000005F0010030B106F4807018B1E06B40F0BA
:103110000100E06305F0040030B107F0010018B1D0
:10312000E06B40F00200E06305F0020030B107F010
:10313000010018B1E06B40F00400E06305F0080006
:1031400048B106F0200010B907F0010018B1E06B9B
:1031500040F00800E063E06B68B305F0200028B1A0
:1031600006F0200010B1204600F01CFA20684069EB
:10317000C0F38019E06B00F0080010B9B9F1000F3E
:1031800022D0204600F0EEF92068406900F04000AF
:10319000B0B12068406920F0400021684861606B50
:1031A00050B11848616B4863606BFEF7E7FE10B1E1
:1031B000606B416B88470CE02046FFF77AFF08E020
:1031C0002046FFF776FF04E02046FFF772FF00205D
:1031D000E06389E7FFE705F0800030B106F080008A
:1031E00018B1204600F0ACFA7EE705F0400030B19F
:1031F00006F0400018B1204600F0C4F974E700BFA3
:1032000072E700005135000810B504460CB90120E2
:1032100010BDA06900B100E000BF94F8390028B9E2
:10322000002084F83800204600F028F8242084F894
:1032300039002068C06820F400502168C86020462A
:1032400000F000FA2068006920F4904021680861CD
:103250002068406920F02A00216848612068C06821
:1032600040F400502168C8600020E063202084F80A
:10327000390084F83A000020CAE7000010B586B093
:1032800004462849206888424AD100BF00BF26482A
:10329000806940F00400244988610846806900F094
:1032A0000400019000BF00BF00BF00BF00BF084680
:1032B000806940F0040088610846806900F00400DD
:1032C000019000BF00BF00BF00BF00BF084680697B
:1032D00040F4804088610846806900F48040019095
:1032E00000BF00BF00BF48150290022003900120DC
:1032F00004900320059002A90C48FEF713FF4FF439
:10330000806002900020039002A90848FEF70AFF9F
:103310002520FFF700F9032211462520FFF70BF9BE
:1033200006B010BD00380140001002400008014006
:1033300010B5034693F83A0020282FD101B10AB9FD
:10334000012010BD00BF93F83800012801D10220F0
:10335000F7E7012083F8380000BF99629A85DA8583
:103360000020D863222083F83A0000BF002083F8B1
:10337000380000BF1868C06840F480701C68E060C6
:103380001868406940F001001C6860611868C068F6
:1033900040F020001C68E0600020D2E70220D0E767
:1033A0001D4A0168914236D11C49098801F4004147
:1033B00089BB1A49098801F4804171B1184909781B
:1033C0000A2903D00021154A118024E013490988F5
:1033D00041F40041114A11801DE0114909780D297D
:1033E00006D10E49098841F480410C4A118012E04F
:1033F0000B490978094A1288C2F30D02094B995406
:1034000006490988491C054A118011460988C729BF
:1034100001DD002111807047003801400C000020C0
:103420000E000020FC030020704700BFFEE700BF35
:10343000FEE7704708B508490968C9084FF47A7271
:10344000B1FBF2F14143009100BF00BF00994A1E59
:1034500000920029F9D108BD000000207047704794
:1034600010B50E480068C06800F0010078B10C4942
:1034700008698047002009490968486200BF642044
:1034800006490968C86264210448C16000BF6FF042
:10349000010002490968086110BD000040300020A9
:1034A000D800002010B50248FFF729FD10BD00002C
:1034B0005C05002010B50268204B98420ED0204BCE
:1034C00098420BD0B0F1804F08D01E4B984205D0E7
:1034D0001D4B984202D01D4B984203D122F070023E
:1034E0004B681A43154B98420ED0154B98420BD09F
:1034F000B0F1804F08D0134B984205D0124B984240
:1035000002D0124B984203D122F44072CB681A4386
:1035100022F080034C6943EA040202608B68C362B4
:103520000B688362054B984202D0054B984201D14B
:103530000B6903630123436110BD0000002C0140AF
:10354000003401400004004000080040000C00402E
:1035500070B505466C6A0020E085E0842046FFF7E0
:10356000A8FD70BD0168C96821F490710268D1603E
:103570000168496921F0010102685161202180F848
:103580003A10704710B504462068C06820F040002B
:103590002168C860202084F839002046FFF744FFE6
:1035A000002010BD70B5044694F83A00222847D197
:1035B000A068B0F5805F0CD1206950B90025A66ADB
:1035C00020684068C0F308003080A06A801CA062B8
:1035D00015E0A56A0026A068B0F5805F03D0A0685A
:1035E00028B9206918B920684068287004E020686C
:1035F000406800F07F002870A06A401CA062E08D47
:10360000401E80B2E085C8B92068C06820F0200064
:103610002168C8602068C06820F480702168C86094
:103620002068406920F0010021684861202084F86A
:103630003A002046FFF7B4FE002070BD0020FCE7F2
:103640000220FAE770B504462168096921F4405167
:10365000E2681143226811612269A168114362691D
:1036600041EA02052168C96841F20C62914329438D
:103670002268D1602168496921F44071A26911432F
:10368000226851612D4A2168914202D1FFF782F8E8
:1036900001E0FFF76FF800EBC00101EB0011626879
:1036A0009200B1FBF2F100EBC00202EB0012636882
:1036B0009B00B2FBF3F26423B2FBF3F202EBC20312
:1036C00003EB0212A1EB8201322202EB0111642210
:1036D000B1FBF2F101F0F00100EBC00202EB0012CD
:1036E00063689B00B2FBF3F26423B2FBF3F201EBDD
:1036F000021200EBC00101EB001163689B00B1FBFB
:10370000F3F100EBC00303EB00136668B600B3FBF4
:10371000F6F36426B3FBF6F303EBC30606EB0313E1
:10372000A1EB8301322303EB01116423B1FBF3F11D
:1037300001F00F0111442268916070BD0038014012
:10374000014691F83900212828D18868B0F5805FBA
:103750000BD1086948B90A6A1088C0F308000B68E1
:103760005860086A801C086205E00B6A581C0862F1
:1037700018780B685860C88C401E80B2C88458B94D
:103780000868C06820F080000B68D8600868C068CE
:1037900040F040000B68D860002070470220FCE732
:1037A00010B50648FFF786FC00BF01220449034814
:1037B000FFF7BEFD0028F8D110BD0000C4040020B2
:1037C0000E00002000BFFEE7490050EAC12018BFEC
:1037D00004204A0D18BF40F0010040F2FF72B2EB26
:1037E000515F08BF40F00200012808BF0520704764
:1037F00002480068C0F30220704700000CED00E0B2
:1038000010B5002804DB0A07130E054A135406E01E
:103810000A07140E034A00F00F031B1FD45410BDF7
:1038200000E400E018ED00E070B50446002508E073
:103830002168481C20600878303805EB850100EBD2
:1038400041052168087800F004F80028F0D12846E6
:1038500070BD0146302903DB392901DC01207047A6
:103860000020FCE730380A2801D2012070470020F0
:103870007047000010B54021074801F0EDFB002221
:10388000042106482EF0FEFF0549086003F09CF96C
:1038900000200449087010BD0C710020956C0008D0
:1038A000480300204403002030B50346B1F900402E
:1038B000B2F90050AC4202DDB1F9004001E0B2F9CA
:1038C00000401C80B1F90240B2F90250AC4202DD66
:1038D000B1F9024001E0B2F902405C80B1F9044064
:1038E000B2F90450AC4202DAB1F9044001E0B2F995
:1038F00004409C80B1F90640B2F90650AC4202DAAD
:10390000B1F9064001E0B2F90640DC800120B3F9CC
:103910000040B3F90450AC4205DCB3F90240B3F9FE
:103920000650AC4200DD002030BDF8B504460D461F
:1039300016460027B4F90000B5F90010884212DBE2
:10394000B4F90200B5F9021088420CDBB4F90400A6
:10395000B5F90410884206DCB4F90600B5F9061082
:10396000884200DC01270FB90020F8BD0EB9012004
:10397000FBE72088ADF800006088ADF80200324611
:103980006946284600F0A7F808B90020EDE7A088AE
:10399000ADF800006088ADF802003246694628465E
:1039A00000F099F808B90020DFE72088ADF80000A2
:1039B000E088ADF8020032466946284600F08BF8F0
:1039C00008B90020D1E7A088ADF80000E088ADF884
:1039D000020032466946284600F07DF808B900200A
:1039E000C3E70120C1E70246B2F90000B1F9043093
:1039F000984213DCB2F90400B1F9003098420DDBB3
:103A0000B2F90200B1F90630984207DCB2F90600BB
:103A1000B1F90230984201DB012070470020FCE739
:103A2000F8B504460D461646B4F90400B5F9001081
:103A3000884211DBB4F90600B5F9021088420BDBAD
:103A4000B4F90000B5F90410884205DCB4F90200AD
:103A5000B5F90610884201DD0120F8BD0EB900203D
:103A6000FBE72088ADF800006088ADF80200324620
:103A70006946284600F02FF808B10020EDE7A0883D
:103A8000ADF800006088ADF802003246694628466D
:103A900000F021F808B10020DFE72088ADF8000031
:103AA000E088ADF8020032466946284600F013F877
:103AB00008B10020D1E7A088ADF80000E088ADF89B
:103AC000020032466946284600F005F808B1002099
:103AD000C3E70120C1E72DE9FC5F05460E46144609
:103AE0004FF0000AB6F90000B5F90010884213DB68
:103AF000B6F90000B5F9041088420DDCB6F90200F1
:103B0000B5F90210884207DBB6F90200B5F90610D4
:103B1000884201DC4FF0010ABAF1000F02D1002007
:103B2000BDE8FC9F002C01DC0120F9E7284618F0D5
:103B3000E8F8834600EBDB704710284618F059F888
:103B4000834600EBDB704FEA6008474501DA3846F0
:103B500000E0404681464C4500DD4C462888ADF8E3
:103B600000002888204400B2ADF804006888ADF851
:103B700002006888204400B2ADF8060000223146F9
:103B80006846FFF7A8FF80B1BDF80400204400B2EA
:103B9000ADF80400BDF80600204400B2ADF8060000
:103BA000314668462AF058FFBAE7E888001B00B2A1
:103BB000ADF80200E888ADF80600002231466846FC
:103BC000FFF789FF80B1BDF80400204400B2ADF8D2
:103BD0000400BDF80200001B00B2ADF8020031463F
:103BE00068462AF039FF9BE7A888001B00B2ADF8B1
:103BF0000000A888ADF80400002231466846FFF7AF
:103C00006AFF80B1BDF80000001B00B2ADF80000F3
:103C1000BDF80200001B00B2ADF802003146684654
:103C20002AF01AFF7CE76888ADF802006888204413
:103C300000B2ADF80600002231466846FFF74BFFA0
:103C400080B1BDF80000001B00B2ADF80000BDF867
:103C50000600204400B2ADF80600314668462AF05E
:103C6000FBFE5DE701205BE710B5B1F90030B2F96A
:103C70000040A34202DAB1F9003001E0B2F90030AD
:103C80000380B1F90230B2F90240A34202DAB1F97D
:103C9000023001E0B2F902304380B1F90430B2F9E8
:103CA0000440A34202DDB1F9043001E0B2F904306E
:103CB0008380B1F90630B2F90640A34202DDB1F9C2
:103CC000063001E0B2F90630C38010BD2DE9FF4196
:103CD000044600BF00BF2EF05DFD054600200390A6
:103CE00034B14C49E068086020462EF06DFF03E0D7
:103CF0001AF068FF474908604649096808692AF0D0
:103D00004FFD44480068406920B14249096848694C
:103D10002AF046FD3F490968C8692AF041FD3D493E
:103D20000968086A2AF03CFD3A480068006988B9C9
:103D3000002038490968A1F8500137A03D4B4FF4E5
:103D400099723DA10090022001F022FA00BF00BF4D
:103D5000BDE8FF812BF0B4F92BF0FAF82D4800688C
:103D6000B0F8500100284BD02A4800680068007C59
:103D7000C0F34000E8B1274800681BF09BF8401EE4
:103D800006B2244800681AF035FF401E07B23B46D1
:103D90000022114601A8009617F0F8FF01A81D495E
:103DA00009680968896B48601A48006806F054FE83
:103DB00000BF4FF4807117480068303024F0C7FD11
:103DC00020211448006800F5987024F0C0FD002000
:103DD00010490968A1F8500128462EF0CDFC039047
:103DE0000C4800680068406A50B10A4909680868D0
:103DF0000849096809684B6A1C490A680399984789
:103E000024F0E4F900F06AF800F032F800BF00BFD7
:103E100000BF9DE700020020746865726520697329
:103E2000206E6F20616374697665207363726565C7
:103E30006E000000DDF503082E2E5C2E2E5C4D6911
:103E400064646C6577617265735C4C56474C5C4783
:103E500055495C6C76676C5C7372635C636F72650A
:103E60005C6C765F726566722E630000FC01002058
:103E700010B5002416E0C4EBC4000C4951F8200032
:103E800030B1C4EBC401094A52F8210024F00CFB04
:103E9000C4EBC401054A02EB81001C2124F057FD4C
:103EA000601CC4B2042CE6DB10BD0000E8710020E9
:103EB0000146094A10680BE042688A4202D0026853
:103EC0008A4204D1027E22F00102521C027640692D
:103ED0000028F1D170470000D40100207047000095
:103EE00010B50421014801F0B7F810BD00710020A1
:103EF00010B51C21014801F0AFF810BD1871002069
:103F00002DE9FF4F8BB004469A46199DBAF1000F78
:103F100011D11898B0F5807F0DD1002020806080ED
:103F20000C98401E00B2A0800D98401E00B2E080A8
:103F30000FB0BDE8F08FB5F9000040421899484332
:103F40000121C1EB202000B22080B5F902004042DF
:103F5000189948430121C1EB202000B26080B5F9D7
:103F600000100C98401A18994843022101EB2020B8
:103F700000B2A080B5F902100D98401A1899484374
:103F8000022101EB202000B2E080BAF1000F14D131
:103F900020882988084400B2208060886988084405
:103FA00000B26080A0882988084400B2A080E08820
:103FB0006988084400B2E080BAE70A209AFBF0F072
:103FC0000A900A98401C09900A9800EB8000AAEB1E
:103FD000400B0A9800B22FF0D5F80890099800B26B
:103FE0002FF0D0F807900A985A3000B22FF0CAF894
:103FF000069009985A3000B22FF0C4F80590CBF122
:104000000A0108984143079800FB0B100A2190FB16
:10401000F1F6CBF10A0106984143059800FB0B101D
:104020000A2190FBF1F776117F11B4F90080B4F901
:10403000029007FB08F006FB1900298801EBA0207D
:1040400000B2ADF8100006FB08F007FB0900698814
:1040500001EBA02000B2ADF81200B4F90480B4F96D
:10406000029007FB08F006FB1900298801EBA0204D
:1040700000B2ADF80C0006FB08F007FB09006988E8
:1040800001EBA02000B2ADF80E00B4F90080B4F945
:10409000069007FB08F006FB1900298801EBA02019
:1040A00000B2ADF8080006FB08F007FB09006988BC
:1040B00001EBA02000B2ADF80A00B4F90480B4F915
:1040C000069007FB08F006FB1900298801EBA020E9
:1040D00000B2ADF8040006FB08F007FB0900698890
:1040E00001EBA02000B2ADF80600BDF90800BDF953
:1040F0001010884202DABDF9080001E0BDF9100095
:10410000BDF90410BDF90C20914202DABDF904108A
:1041100001E0BDF90C1088420BDABDF90800BDF9C9
:104120001010884202DABDF908000DE0BDF9100058
:104130000AE0BDF90400BDF90C10884202DABDF9AD
:10414000040001E0BDF90C002080BDF90800BDF9B4
:104150001010884202DDBDF9080001E0BDF9100031
:10416000BDF90410BDF90C20914202DDBDF9041027
:1041700001E0BDF90C1088420BDDBDF90800BDF966
:104180001010884202DDBDF908000DE0BDF91000F5
:104190000AE0BDF90400BDF90C10884202DDBDF94A
:1041A000040001E0BDF90C00A080BDF90A00BDF9D2
:1041B0001210884202DABDF90A0001E0BDF91200CE
:1041C000BDF90610BDF90E20914202DABDF90610C4
:1041D00001E0BDF90E1088420BDABDF90A00BDF905
:1041E0001210884202DABDF90A000DE0BDF9120092
:1041F0000AE0BDF90600BDF90E10884202DABDF9E9
:10420000060001E0BDF90E006080BDF90A00BDF9AD
:104210001210884202DDBDF90A0001E0BDF912006A
:10422000BDF90610BDF90E20914202DDBDF9061060
:1042300001E0BDF90E1088420BDDBDF90A00BDF9A1
:104240001210884202DDBDF90A000DE0BDF912002E
:104250000AE0BDF90600BDF90E10884202DDBDF985
:10426000060001E0BDF90E00E08000BF60E62DE928
:10427000F74F86B0044620680590B4F908100798F7
:10428000A0EB0108B4F90A100898A0EB0109E08935
:10429000B0F5807F13D1206B00FB08F0E16A01FBD1
:1042A0001901606A00EBA10BE06A00FB08F0216BCA
:1042B00001FB0901A06A00EBA10004902FE0A08996
:1042C00080B9A06B00FB08F04FEA6018A06B00FB00
:1042D00009F04FEA6019606A00EB080BA06A4844D5
:1042E00004901CE0A06B00FB08F04FEA6018A06B84
:1042F00000FB09F04FEA6019206B00FB08F0E16A4F
:1043000001FB1901606A00EBA12BE06A00FB08F0D9
:10431000216B01FB0901A06A00EBA12004904FEA88
:104320002B2604980712B4F90400B04203DC0020E5
:1043300009B0BDE8F08F002E01DA0020F8E7B4F9EB
:104340000600B84201DC0020F2E7002F01DA00206D
:10435000EEE73420005DC0F3800050B33420005DF0
:10436000C0F3400078B90225B4F9040078436843EB
:1043700006FB050A059800EB0A012A4604F1140021
:1043800024F093FA2CE00325B4F904007843684341
:1043900006FB050A6A1E059800EB0A0104F11400E9
:1043A00024F083FA0AEB0500401E0599095CA1750B
:1043B00016E04FF0000A0025208A03463AB231B2D7
:1043C000019004F118001FF07BFF0290BDF8080077
:1043D000A0823AB231B204F118001FF0D1FEA075EC
:1043E0003420005D00F00100B0B14FF47F400021A7
:1043F00000F47C4241EA5211C0F3C402114301911E
:10440000BDF8042011460291A08ABDF80810884228
:1044100001D100208CE700BFE07C08B9012087E7CC
:104420000FFA8BF1A187049801B2E18731B24020E5
:10443000015339B242200153C4F844A084F84850D3
:10444000204600F003F80390039871E72DE9F04F40
:104450008DB00446D4F8009094F83C000C9094F889
:104460003E000B900C9870280BDA4FF0FF35B4F932
:1044700040002844002800DA00250C988030C7B29C
:1044800013E00C9890280EDD0125B4F94000284473
:10449000B4F90410884200DB00250C98C0F1FF003D
:1044A0008030C7B201E00025FF270B9870280CDA96
:1044B0004FF0FF36B4F942003044002800DA0026FD
:1044C0000B98803000F0FF0815E00B9890280FDD66
:1044D0000126B4F942003044B4F90610884200DBEA
:1044E00000260B98C0F1FF00803000F0FF0802E0CA
:1044F00000264FF0FF08A08A0A90A07D06900020B9
:104500000590049003903420005DC0F380000028E3
:104510005BD094F84800626C00FB052000EB0901B9
:10452000022209A824F0C1F9B4F9040094F8482043
:104530005043626C00FB062000EB0901022208A830
:1045400024F0B3F9B4F9040094F848205043626CA5
:1045500000FB062294F8480000FB052000EB09014F
:10456000022207A824F0A1F93420005DC0F3400026
:1045700000287ED094F84800616C00FB05110844C7
:10458000401E19F800000590B4F9040094F8481092
:104590004843616C00FB061194F848000844401E33
:1045A00019F800000490B4F9040094F84810484346
:1045B000616C00FB061194F8480000FB05110844EB
:1045C000401E19F80000039053E0208A0090B4F9CF
:1045D00042204020005B284401B204F11800009BF7
:1045E0001FF06EFE0990208A00904220005B30444C
:1045F00002B2B4F9401004F11800009B1FF060FEF5
:104600000890208A00904220005B304402B2402093
:10461000005B284401B204F11800009B1FF050FE1B
:1046200007903420005DC0F3400010B3B4F942207D
:104630004020005B284401B204F118001FF0A0FDE7
:1046400005904220005B304402B2B4F9401004F1FE
:1046500018001FF095FD04904220005B304402B228
:104660004020005B284401B204F118001FF088FDCF
:104670000390BA46BB463420005DC0F34000E0B36F
:1046800006987843C7F1FF0C059B03FB0C00C0F3B1
:10469000072104987843C7F1FF0C039B03FB0C0030
:1046A000C0F3072201FB08F0C8F1FF0302FB03007F
:1046B000030AA375022905DC022A03DC00200DB0E1
:1046C000BDE8F08F022901DC4FF00008022A01DC6E
:1046D0004FF0FF080698022801DC4FF0000A059809
:1046E000022801DC4FF0FF0A0498022801DC4FF099
:1046F000000B0398022803DC00E002E04FF0FF0B00
:1047000003E0BA46BB46FF21A175BAF1000F02D102
:10471000099802900BE0BAF1FF0F02D10A980290BB
:1047200005E05246DDE9091019F026FC0290BBF1C4
:10473000000F02D1079801900BE0BBF1FF0F02D1EF
:104740000898019005E05A46DDE9071019F014FCBD
:104750000190B8F1000F03D1BDF80400A0820FE072
:10476000B8F1FF0F03D1BDF80800A08208E042466F
:10477000DDE9011019F000FC0090BDF80000A082F6
:1047800001209CE72DE9F05F0446B4F9080001021E
:104790006162B4F90A000102A162B4F90C000A21B5
:1047A00090FBF1F56F1CB4F90C0005EB8501A0EB53
:1047B0004106684200B22EF0E5FC8046784200B225
:1047C0002EF0E0FC8146C5F15A0000B22EF0DAFC72
:1047D0008246C7F15A0000B22EF0D4FC8346C6F1DF
:1047E0000A0000FB08F009FB06000A2190FBF1F12A
:1047F000E162C6F10A0000FB0AF00BFB06000A2189
:1048000090FBF1F12163E06A4111E162206B4111FB
:104810002163A07C1FF063FE3421095D60F3000179
:1048200034200155A07C1FF03DFE3421095D60F36A
:10483000410134200155A07C042805D0A07C052826
:1048400002D0A07C062807D13420005D20F00400AF
:10485000001D3421085505E03420005D20F00401DE
:104860003420015521682162A06920F0E000A06198
:10487000A17CA06961F30400A061A188A06961F333
:104880009420A061E188A06961F35F50A061E08994
:1048900000EBD071491001F5001191FBF0F2A26319
:1048A000FF21A175208AA082BDE8F09F2DE9F74184
:1048B00081B0054616460024164C2DF06BFF80464D
:1048C000334629462046029A20F0E8FC0746002F8E
:1048D00012D111A01B4B7D221BA10090022000F0E1
:1048E00057FC2C21204624F032F84FF00040A06203
:1048F000002004B0BDE8F0810020A062E06918B992
:1049000040462DF039FFE061E06908B90120E0611F
:104910002046EEE73C710020496D616765206472B6
:1049200061772063616E6E6F74206F70656E2074A6
:10493000686520696D616765207265736F75726364
:1049400065000000ADF603082E2E5C2E2E5C4D692E
:1049500064646C6577617265735C4C56474C5C4768
:1049600055495C6C76676C5C7372635C64726177EA
:104970005C6C765F696D675F63616368652E630079
:104980003EB51421194800F067FB20F0EFFB044608
:1049900000BF002C0DD116A019A11DA2244BCDE9FA
:1049A00000210290402223A1032000F0F1FB00BF70
:1049B000FEE700BF44B92EA01D4B42221DA100906E
:1049C000022000F0E5FB3EBD3249204620F066FDA6
:1049D0003149204620F064FD3049204620F062FD38
:1049E0002F49204620F058FD00BFECE7247100203D
:1049F0004F7574206F66206D656D6F7279000000D1
:104A00006465636F64657220213D204E554C4C00F7
:104A10004173736572746564206174206578707287
:104A2000657373696F6E3A202573202825732900FA
:104A3000D6F603082E2E5C2E2E5C4D6964646C65E0
:104A400077617265735C4C56474C5C4755495C6CAA
:104A500076676C5C7372635C647261775C6C765FC2
:104A6000696D675F6465636F6465722E6300000043
:104A70006C765F696D675F6465636F6465725F69BB
:104A80006E69743A206F7574206F66206D656D6F66
:104A900072790000C5450208E94B0208ED4F020893
:104AA0008D45020838B504460D461021284623F0EE
:104AB0004EFF20680078012804D1208A2880608A6F
:104AC00068800CE020680078022802D1E068686005
:104AD00005E020680078042801D10A206860206879
:104AE000406830B100BF00BF206829464268904747
:104AF00007E004A00B4BBE220BA10090022000F0A7
:104B000047FB38BD696E6465765F726561645F639B
:104B100062206973206E6F742072656769737465B3
:104B2000726564002A3904082E2E5C2E2E5C4D69B5
:104B300064646C6577617265735C4C56474C5C4786
:104B400055495C6C76676C5C7372635C68616C5C25
:104B50006C765F68616C5F696E6465762E630000D9
:104B60002DE9FE430446A66AEEB9A18A208A0844CC
:104B700001B2A182E18A608A084401B2E182204642
:104B80000DF065FD06460EB9BDE8FE83204611F026
:104B9000A9FD0022092130461EF080F96078C0F39B
:104BA000400000B1F0E7208A10B9608A002870D078
:104BB00000200290019094F83C0000F00F000328C0
:104BC00012D1304626F0DAF80746304626F05EF875
:104BD000804603200090B4F910103B464246304610
:104BE0000CF0EEFF029012E0304626F049F907463D
:104BF000304625F0BDFF80460C200090B4F912101D
:104C000043463A4630460CF0DBFF019000BF304689
:104C100026F00EF8054605F0010028B9BDF9080098
:104C2000002801DD0020029005F0020028B9BDF93E
:104C30000800002801DA0020029005F0040028B9DD
:104C4000BDF90400002801DD0020019005F00800F6
:104C500028B9BDF90400002801DA0020019001AA5A
:104C600002A9204630F0EAFC0023BDF90420BDF97A
:104C70000810304628F0E2FFA08ABDF8081008446A
:104C800001B2A182E08ABDF80410084401B2E182B9
:104C900000BF00BF78E72DE9F84F0446D4F828B0EC
:104CA000BBF1000F01D1BDE8F88F94F83C0000F093
:104CB0000F0000B9F7E720F0F3FF06463068477EA3
:104CC0004021584627F0E4FC10B90021618321837C
:104CD000584626F0C1F88046584626F0C7F80546E3
:104CE00094F83C0000F00F000C2843D100212183F0
:104CF0001DBBB4F91A00C7F164014843642190FB5D
:104D0000F1F001B26183584625F032FF81465846E2
:104D100026F0B6F882460C200090B4F91A104B46E3
:104D2000524658460CF04CFF6083B4F91A20002319
:104D30001946584628F082FF69E0204630F0D5FC3D
:104D40000090002161836A46204630F077FCBDF96F
:104D5000003041F6FF72514258460DF021FE814667
:104D6000BDF80000484402B201230021584628F053
:104D700065FF4CE094F83C0000F00F00032846D19A
:104D800000216183B8F1000F23D1B4F91800C7F1F5
:104D900064014843642190FBF1F001B2218358463D
:104DA00025F074FF8146584625F0E8FF824603202F
:104DB0000090B4F9181053464A4658460CF000FFCC
:104DC0002083B4F9181000231A46584628F036FFFD
:104DD0001DE0204630F06EFC00900021218300226F
:104DE0006946204630F02AFCBDF9003041F6FF72DA
:104DF000514258460DF03AFD8146BDF80000484446
:104E000001B201230022584628F018FF00BF208B72
:104E1000002860D1608B00285DD11DBB584626F06C
:104E20002FF88146584625F0A3FE8246B9F1000FBF
:104E300002DCBAF1000F14DDB9F1000F06DA01232C
:104E40004A460021584628F0F9FE0AE0BAF1000F60
:104E500007DA0123CAF1000002B20021584628F007
:104E6000EDFE00BFB8F1000F23D1584625F00EFF2C
:104E70008146584625F082FF8246B9F1000F02DCD8
:104E8000BAF1000F14DDB9F1000F06DA0123002298
:104E90004946584628F0D2FE0AE0BAF1000F07DA78
:104EA00001230022CAF1000001B2584628F0C6FED4
:104EB00000BF32460A2158461DF0F0FF6078C0F36B
:104EC000400000B1EFE694F83C0020F00F0184F8B8
:104ED0003C100021A16200BFE5E62DE9FF41044638
:104EE0000F4614B919F06EFE04460CB9BDE8FF81F7
:104EF0001FB90020A4F85001F8E70020ADF8080021
:104F0000ADF80A00204619F075FE401E00B2ADF85B
:104F10000C00204619F0CEFF401E00B2ADF80E0086
:104F200002AA39466846FEF7BFFC064606B9DDE729
:104F30002068007CC0F3400060B1029820630398B1
:104F400060630120A4F85001606810B160682DF022
:104F500047FECBE72068806918B1206869468269FE
:104F6000904700250BE004F1300000EBC501002262
:104F70006846FEF7DAFC00B1B8E7681C85B2B4F801
:104F80005001A842EFDCB4F85001202809DAB4F847
:104F9000502104F1300101EBC200694616F099FD81
:104FA0000BE00020A4F85001B4F8502104F13001C6
:104FB00001EBC20002A916F08CFDB4F85001401CB0
:104FC000A4F85001606810B160682DF009FE00BFC0
:104FD0008CE770B50546284600F013F80446002615
:104FE0000CE02146284600F024F8064621462846D3
:104FF00000F086F8204623F057FA3446002CF0D112
:1050000070BD014609B9002070474868FCE770B5DB
:10501000064600243046FFF7F4FF054605E0641C11
:105020002946304600F005F80546002DF7D1204608
:1050300070BD02460B461068001D03441868704797
:1050400002460B461068034418687047014609B9C8
:10505000002070478868FCE7002242608260CA1C1A
:1050600022F003010160704770B50446216801F128
:10507000080023F025F80546A5B100222946204660
:105080002FF064FA2946204662682FF051FA6068D2
:1050900020B12A46204661682FF058FA6560A06862
:1050A00000B9A560284670BD70B50446216801F1BD
:1050B000080023F005F80546A5B100222946204640
:1050C0002FF036FA29462046A2682FF03FFAA06852
:1050D00020B12A462046A1682FF02AFAA560606810
:1050E00000B96560284670BD014609B901207047C6
:1050F000486818B9886808B90120F8E70020F6E781
:105100002DE9F04104460D460CB9BDE8F08120467A
:10511000FFF777FFA8420FD129462046FFF789FF06
:105120006060606810B90020A0602FE00022204677
:1051300061682FF00BFA29E02046FFF787FFA842AD
:105140000FD129462046FFF77BFFA060A06810B969
:10515000002060601AE000222046A1682FF0E8F9E4
:1051600014E029462046FFF76BFF064629462046F5
:10517000FFF75FFF07463A46314620462FF0D8F941
:105180003246394620462FF0E1F900BF00BFBCE7A8
:105190002DE9FE4F07460D4691469846062F01DB46
:1051A000BDE8FE8F022F38DB0DA802902846FBF7E2
:1051B00001FB044608E0285D2F2802D0285D5C280A
:1051C00001D1641C02E0641E002CF4D100BF2DF05C
:1051D000E1FA06464FF47A70B6FBF0F100FB116A73
:1051E000B6FBF0FB0E480068301ACDE900080D4808
:1051F00050F8271053465A460BA0FBF7FBF80299CC
:105200000C98FBF7F1F829194A460EA0FBF7F2F8C3
:10521000034806600020029000BF00BFC0E7000006
:1052200064030020680300205B25735D0928256462
:105230002E253033642C202B256429092025733A30
:1052400020000000200928696E202573206C696EFB
:105250006520232564290A0010B50446206880686B
:1052600018B120682146826890472068006828B1FC
:105270002068006820602046FFF7EEFF10BD014661
:10528000886818B18868B0F9160070470020FCE7FC
:105290002DE9F04F93B005468B4691469A461C9EE9
:1052A000688C20F00400001D6884A5F820903289E5
:1052B0005946284626F068FF1290A5F820A03289AA
:1052C0005946284626F060FF1190688C20F00400B3
:1052D0006884DDE9111088420CD1DDE911108842A3
:1052E00008D1BDF84800BDF84410884202D113B07F
:1052F000BDE8F08FA5F8209032895946284626F05F
:1053000043FF1290A5F820A0594628460FF00FFB46
:1053100010903189109A1068129A2BF01DFD308977
:10532000602833D147F6FF711298884202D0119855
:1053300088422BD1284627F04EF90F9000EBD07011
:105340004710284627F047F90F9000EBD0704FEA3E
:10535000600847F6FF711298884208D1781C08F15E
:105360000101884200DA01E008F10100129047F6DD
:10537000FF711198884208D1781C08F10101884218
:1053800000DA01E008F10100119000BF2A48FFF7A0
:105390006BFE044600BF74B928A02CA12EA2364B88
:1053A000CDE9002102904FF4A57234A10320FFF74C
:1053B000EFFE00BFFEE700BF04B998E71298E06077
:1053C00011982061ACB325603089A080C4F808B082
:1053D000684615F0E7FC2146684615F096FD35490C
:1053E000684615F062FD3448029000BF33496846B4
:1053F00015F069FDFF220021684615F076FD318821
:10540000684615F068FD7188684615F049FDF0683A
:10541000069000BF6846002190F83E2061F300022C
:1054200080F83E2000BF30690590684615F084FD85
:1054300000BF00BF5BE70000307100204F75742093
:105440006F66206D656D6F727900000074722021A7
:105450003D204E554C4C0000417373657274656479
:105460002061742065787072657373696F6E3A207D
:10547000257320282573290080F503082E2E5C2E25
:105480002E5C4D6964646C6577617265735C4C5623
:10549000474C5C4755495C6C76676C5C7372635C27
:1054A000636F72655C6C765F6F626A5F7374796C50
:1054B000652E6300859B0308319E0308619D0308E8
:1054C00010B514210148FFF7C7FD10BD3071002051
:1054D0002DE9FE4F04460F4690464FF00009002587
:1054E0006BE1E06800EBC5004068C0F3406000B1CC
:1054F00062E1E16801EBC501496821F07F4029F0D4
:105500004BF9064626EA070008B9012000E0002012
:10551000029026EA080008B9012000E0002001906E
:10552000DDE90101814272D0E06850F835A04FF00A
:10553000000B6A4641F6100150462BF041F810B1BD
:105540004FF0010BA9E06A4641F6110150462BF0DD
:1055500037F810B14FF0010B9FE06A4641F6120197
:1055600050462BF02DF810B14FF0010B95E06A4634
:1055700041F6130150462BF023F810B14FF0010B08
:105580008BE06A4641F6150150462BF019F810B130
:105590004FF0010B81E06A4641F6140150462BF0B2
:1055A0000FF810B14FF0010B77E06A4641F2690144
:1055B00050462BF005F810B14FF0010B6DE06A4634
:1055C00043F20C0150462AF0FBFF10B14FF0010BE3
:1055D00063E06A4643F20D0150462AF0F1FF10B134
:1055E0004FF0010B59E06A4641F2010150462AF0A2
:1055F000E7FF10B14FF0010B4FE06A4641F20401A2
:1056000050462AF0DDFF18B14FF0010B45E0D2E023
:105610006A4641F2020150462AF0D2FF10B14FF023
:10562000010B3AE06A4641F2030150462AF0C8FFF6
:1056300010B14FF0010B30E06A4641F205015046CF
:105640002AF0BEFF10B14FF0010B26E06A4641F28E
:10565000060150462AF0B4FF10B14FF0010B1CE0D8
:105660006A4641F2320150462AF0AAFF10B14FF0CB
:10567000010B12E06A4643F60F0150462AF0A0FFE4
:1056800010B14FF0010B08E06A4643F60E01504698
:105690002AF096FF08B14FF0010BBBF1000F02D0CA
:1056A0000320BDE8FE8F6A4640F60A0150462AF004
:1056B00087FF10B14FF002097CE06A4640F60B010B
:1056C00050462AF07DFF10B14FF0020972E06A46A1
:1056D00043F60F0150462AF073FF10B14FF0020954
:1056E00068E06A4643F60E0150462AF069FF10B1A1
:1056F0004FF002095EE06A4640F63C0150462AF04F
:105700005FFF10B14FF0020954E06A4640F63D01D8
:1057100050462AF055FF10B14FF002094AE06A46A0
:1057200040F63A0150462AF04BFF10B14FF0020903
:1057300040E06A464FF4046150462AF041FF10B140
:105740004FF0020936E06A4640F6450150462AF01D
:1057500037FF10B14FF002092CE06A4640F64101D4
:1057600050462AF02DFF10B14FF0020922E06A46A0
:1057700040F6420150462AF023FF10B14FF00209D3
:1057800018E06A4640F6430150462AF019FF10B16E
:105790004FF002090EE06A4640F6490150462AF0F1
:1057A0000FFF10B14FF0020904E0B9F1000F01D171
:1057B0004FF0010900BF00BF6D1C608CC0F3C50035
:1057C000A8423FF68EAE48466BE7000001480068ED
:1057D000704700000002002070470146C1F3041228
:1057E000072A00DD0722D0B27047000010B518214B
:1057F0000348FFF731FC01202DF0C6F810BD000072
:10580000DC7000202DE9F04105460F4616460DB923
:10581000BDE8F0812846FAF7CDFF80463946284694
:105820000A4A126890470746E8193146074A126843
:10583000904706463C4603E0A019285C2855641CA6
:10584000A8EB0600A042F7D200BFE1E7B0030020BA
:105850002DE9F04106460C4617461D4629463046BE
:10586000084A126890472060206830B1296888197A
:105870000021044A1268904700E000203860BDE82B
:10588000F0810000A80300202DE9F04F87B0044606
:105890000F4692469846DDE910560DB1002028804B
:1058A0001CB9002007B0BDE8F08F207808B90020AF
:1058B000F8E70FB90020F5E74FF0000906F0020005
:1058C00010B906F0040098B1002000E0401C215CF3
:1058D0000A2905D0215C0D2902D0215C0029F5D1CF
:1058E000215C01B1401C15B14FF0FF312980D9E78F
:1058F00006F0020008B141F6FF78002006900590FE
:1059000038E000200490059808B9012000E000204C
:1059100006A904AACDE90062CDE902100599601834
:105920004346524639462DF065FC83460498A8EB61
:1059300000000FFA80F8049848440FFA80F9BBF190
:10594000000F00D11CE005985844059020780A28E3
:1059500002D020780D2800D112E00598205C0A289A
:1059600003D00598205C0D2803D10598401C0590B4
:1059700006E000BF0598205C10B1B8F1000FC0DC54
:1059800000BF059870B905A92046094A12689047DA
:10599000834635B10022594638461DF0C1FC0FFA46
:1059A00080F900BF0DB1A5F8009005987AE70000D6
:1059B000A80300202DE9F04706468846174606B1A1
:1059C0000FB9BDE8F0873046FAF7F4FE8146384655
:1059D000FAF7F0FE044604B9F3E704EB090A41467E
:1059E00030460B4A126890478046554603E0281B14
:1059F000305C70556D1E08EB0400A842F7D906EB29
:105A000008002246394622F05CFF00BFD9E70000BB
:105A1000B0030020024600200FA31B788B4211D157
:105A200013781BB90123137001200BE01378012BAD
:105A300002D10023137005E01378022B02D100235A
:105A4000137001201378012B04D1202901D10223E6
:105A500013700120704700002300000073B584B06C
:105A6000064605980390324600210846039B2DF018
:105A70001FFF0546002003900024681C22F020FB35
:105A8000044600BF002C0ED10EA012A115A21D4B82
:105A9000CDE9002102904FF4F0721BA10320FFF723
:105AA00077FB00BFFEE700BF14B9002006B070BD51
:105AB000002060553246691C2046059B2DF0F8FEFB
:105AC0002046F3E74F7574206F66206D656D6F7229
:105AD000790000007465787420213D204E554C4CAF
